{
  "_format": "hh-sol-artifact-1",
  "contractName": "Escrow",
  "sourceName": "contracts/Escrow.sol",
  "abi": [
    {
      "inputs": [
        {
          "internalType": "address",
          "name": "_depositor",
          "type": "address"
        },
        {
          "internalType": "address",
          "name": "_arbiter",
          "type": "address"
        },
        {
          "internalType": "address",
          "name": "_beneficiary",
          "type": "address"
        }
      ],
      "stateMutability": "payable",
      "type": "constructor"
    },
    {
      "inputs": [],
      "name": "approve",
      "outputs": [],
      "stateMutability": "nonpayable",
      "type": "function"
    },
    {
      "inputs": [],
      "name": "arbiter",
      "outputs": [
        {
          "internalType": "address",
          "name": "",
          "type": "address"
        }
      ],
      "stateMutability": "view",
      "type": "function"
    },
    {
      "inputs": [],
      "name": "beneficiary",
      "outputs": [
        {
          "internalType": "address",
          "name": "",
          "type": "address"
        }
      ],
      "stateMutability": "view",
      "type": "function"
    },
    {
      "inputs": [],
      "name": "depositor",
      "outputs": [
        {
          "internalType": "address",
          "name": "",
          "type": "address"
        }
      ],
      "stateMutability": "view",
      "type": "function"
    },
    {
      "inputs": [],
      "name": "destroyContract",
      "outputs": [],
      "stateMutability": "nonpayable",
      "type": "function"
    },
    {
      "inputs": [],
      "name": "factoryContract",
      "outputs": [
        {
          "internalType": "address",
          "name": "",
          "type": "address"
        }
      ],
      "stateMutability": "view",
      "type": "function"
    },
    {
      "inputs": [],
      "name": "isApproved",
      "outputs": [
        {
          "internalType": "bool",
          "name": "",
          "type": "bool"
        }
      ],
      "stateMutability": "view",
      "type": "function"
    }
  ],
  "bytecode": "0x60806040526040516103a73803806103a78339810160408190526100229161008d565b60008054336001600160a01b0319918216179091556001805482166001600160a01b039485161790556002805482169284169290921790915560038054909116929091169190911790556100d0565b80516001600160a01b038116811461008857600080fd5b919050565b6000806000606084860312156100a257600080fd5b6100ab84610071565b92506100b960208501610071565b91506100c760408501610071565b90509250925092565b6102c8806100df6000396000f3fe608060405234801561001057600080fd5b506004361061007d5760003560e01c806338af3eed1161005b57806338af3eed146100bd578063c7c4ff46146100e8578063de11c94a146100fb578063fe25e00a1461010e57600080fd5b8063092a5cce1461008257806312424e3f1461008c57806328f371aa14610094575b600080fd5b61008a610121565b005b61008a610162565b6003546100a890600160a01b900460ff1681565b60405190151581526020015b60405180910390f35b6002546100d0906001600160a01b031681565b6040516001600160a01b0390911681526020016100b4565b6003546100d0906001600160a01b031681565b6000546100d0906001600160a01b031681565b6001546100d0906001600160a01b031681565b6000546001600160a01b031633146101545760405162461bcd60e51b815260040161014b90610241565b60405180910390fd5b6003546001600160a01b0316ff5b6000546001600160a01b0316331461018c5760405162461bcd60e51b815260040161014b90610241565b6003805460ff60a01b1916600160a01b17905560025460405147916000916001600160a01b039091169083908381818185875af1925050503d80600081146101f0576040519150601f19603f3d011682016040523d82523d6000602084013e6101f5565b606091505b505090508061023d5760405162461bcd60e51b81526020600482015260146024820152732330b4b632b2103a379039b2b7321022ba3432b960611b604482015260640161014b565b5050565b60208082526031908201527f4f6e6c792074686520666163746f727920636f6e747261637420636e20706572604082015270666f726d207468697320616374696f6e2160781b60608201526080019056fea2646970667358221220507204883e8fb7974024242ed16e95102fa1d0a545d2cc810c338ce1ad15541564736f6c63430008110033",
  "linkReferences": {},
  "deployedLinkReferences": {}
}