{
  "_format": "hh-sol-artifact-1",
  "contractName": "EscrowFactory",
  "sourceName": "contracts/Escrow.sol",
  "abi": [
    {
      "inputs": [
        {
          "internalType": "address",
          "name": "escrowContract",
          "type": "address"
        }
      ],
      "name": "ArrayIndexDoesNotExist",
      "type": "error"
    },
    {
      "anonymous": false,
      "inputs": [
        {
          "indexed": true,
          "internalType": "address",
          "name": "escrowAddress",
          "type": "address"
        }
      ],
      "name": "EscrowApproved",
      "type": "event"
    },
    {
      "anonymous": false,
      "inputs": [
        {
          "indexed": true,
          "internalType": "address",
          "name": "depositor",
          "type": "address"
        },
        {
          "indexed": true,
          "internalType": "address",
          "name": "arbiter",
          "type": "address"
        },
        {
          "indexed": true,
          "internalType": "address",
          "name": "beneficiary",
          "type": "address"
        },
        {
          "indexed": false,
          "internalType": "uint256",
          "name": "amount",
          "type": "uint256"
        }
      ],
      "name": "EscrowCreated",
      "type": "event"
    },
    {
      "anonymous": false,
      "inputs": [
        {
          "indexed": true,
          "internalType": "address",
          "name": "escrowAddress",
          "type": "address"
        }
      ],
      "name": "EscrowRemoved",
      "type": "event"
    },
    {
      "inputs": [
        {
          "internalType": "address",
          "name": "escrowAddr",
          "type": "address"
        }
      ],
      "name": "approveEscrow",
      "outputs": [],
      "stateMutability": "nonpayable",
      "type": "function"
    },
    {
      "inputs": [
        {
          "internalType": "address",
          "name": "_depositor",
          "type": "address"
        },
        {
          "internalType": "address",
          "name": "_arbiter",
          "type": "address"
        },
        {
          "internalType": "address",
          "name": "_beneficiary",
          "type": "address"
        }
      ],
      "name": "createEscrow",
      "outputs": [],
      "stateMutability": "payable",
      "type": "function"
    },
    {
      "inputs": [
        {
          "internalType": "uint256",
          "name": "",
          "type": "uint256"
        }
      ],
      "name": "deployedEscrows",
      "outputs": [
        {
          "internalType": "address",
          "name": "",
          "type": "address"
        }
      ],
      "stateMutability": "view",
      "type": "function"
    },
    {
      "inputs": [
        {
          "internalType": "address",
          "name": "",
          "type": "address"
        }
      ],
      "name": "escrowContracts",
      "outputs": [
        {
          "internalType": "address",
          "name": "contr",
          "type": "address"
        },
        {
          "internalType": "address",
          "name": "depositor",
          "type": "address"
        },
        {
          "internalType": "address",
          "name": "arbiter",
          "type": "address"
        },
        {
          "internalType": "address",
          "name": "beneficiary",
          "type": "address"
        },
        {
          "internalType": "uint256",
          "name": "amount",
          "type": "uint256"
        },
        {
          "internalType": "bool",
          "name": "isApproved",
          "type": "bool"
        }
      ],
      "stateMutability": "view",
      "type": "function"
    },
    {
      "inputs": [],
      "name": "getDeployedEscrows",
      "outputs": [
        {
          "internalType": "address[]",
          "name": "",
          "type": "address[]"
        }
      ],
      "stateMutability": "view",
      "type": "function"
    },
    {
      "inputs": [
        {
          "internalType": "address",
          "name": "escrowAddr",
          "type": "address"
        }
      ],
      "name": "removeEscrow",
      "outputs": [],
      "stateMutability": "nonpayable",
      "type": "function"
    }
  ],
  "bytecode": "0x608060405234801561001057600080fd5b50610cfb806100206000396000f3fe6080604052600436106100555760003560e01c8063297ae4121461005a578063323f11421461007c578063861e5db4146100b957806393e4674414610161578063960a710114610181578063a1054f6b146101a3575b600080fd5b34801561006657600080fd5b5061007a610075366004610798565b6101b6565b005b34801561008857600080fd5b5061009c6100973660046107ba565b610303565b6040516001600160a01b0390911681526020015b60405180910390f35b3480156100c557600080fd5b5061011f6100d4366004610798565b60016020819052600091825260409091208054918101546002820154600383015460048401546005909401546001600160a01b03958616959384169492841693909116919060ff1686565b604080516001600160a01b03978816815295871660208701529386169385019390935293166060830152608082019290925290151560a082015260c0016100b0565b34801561016d57600080fd5b5061007a61017c366004610798565b61032d565b34801561018d57600080fd5b50610196610581565b6040516100b091906107d3565b61007a6101b1366004610820565b6105e3565b6001600160a01b03808216600090815260016020526040902060028101549091163381146101ff5760405162461bcd60e51b81526004016101f690610863565b60405180910390fd5b600582015460ff16156102625760405162461bcd60e51b815260206004820152602560248201527f54686520657363726f772068617320616c7265616479206265656e20617070726044820152646f7665642160d81b60648201526084016101f6565b60058201805460ff19166001179055604080516312424e3f60e01b815290516001600160a01b038516916312424e3f91600480830192600092919082900301818387803b1580156102b257600080fd5b505af11580156102c6573d6000803e3d6000fd5b50506040516001600160a01b03861692507f69e5f7584db1fa6d5b0b3c4880abf87950cee2e5ef997099a6e34eea71bbbcf69150600090a2505050565b6000818154811061031357600080fd5b6000918252602090912001546001600160a01b0316905081565b6001600160a01b03808216600090815260016020818152604092839020835160c081018552815486168082529382015486169281019290925260028101548516938201849052600381015490941660608201526004840154608082015260059093015460ff16151560a0840152903381146103ba5760405162461bcd60e51b81526004016101f690610863565b60001960005b60005481101561041b57836001600160a01b0316600082815481106103e7576103e76108aa565b6000918252602090912001546001600160a01b0316036104095780915061041b565b80610413816108d6565b9150506103c0565b50600019810361044957604051632dc2a5bd60e11b81526001600160a01b03841660048201526024016101f6565b60008054610459906001906108ef565b81548110610469576104696108aa565b600091825260208220015481546001600160a01b03909116919083908110610493576104936108aa565b6000918252602082200180546001600160a01b0319166001600160a01b0393909316929092179091558054806104cb576104cb610908565b6001900381819060005260206000200160006101000a8154906001600160a01b0302191690559055826001600160a01b031663092a5cce6040518163ffffffff1660e01b8152600401600060405180830381600087803b15801561052e57600080fd5b505af1158015610542573d6000803e3d6000fd5b50506040516001600160a01b03881692507f11b7e850ddbb17cad1c0bee1cd82ff930439a5dfde82c6a3472a64fba0f122de9150600090a25050505050565b606060008054806020026020016040519081016040528092919081815260200182805480156105d957602002820191906000526020600020905b81546001600160a01b031681526001909101906020018083116105bb575b5050505050905090565b60003490506000818585856040516105fa9061076f565b6001600160a01b039384168152918316602083015290911660408201526060016040518091039082f0905080158015610637573d6000803e3d6000fd5b506040805160c0810182526001600160a01b0383811680835289821660208085018281528b85168688018181528c87166060890181815260808a018e8152600060a08c018181528a82526001808a528e83209d518e546001600160a01b0319908116918f16919091178f5598518e820180548b16918f16919091179055955160028e0180548a16918e16919091179055925160038d018054891691909c1617909a555160048b0155516005909901805460ff191699151599909917909855865490810187559580527f290decd9548b62a8d60345a988386fc84ba6bc95484008f6362f93160ef3e563909501805490911690931790925593518781529495508594929391927fd99c67ae0185d6b0a36717d67d259f252914f7955744e4d81a91685ff480896d910160405180910390a4505050505050565b6103a78061091f83390190565b80356001600160a01b038116811461079357600080fd5b919050565b6000602082840312156107aa57600080fd5b6107b38261077c565b9392505050565b6000602082840312156107cc57600080fd5b5035919050565b6020808252825182820181905260009190848201906040850190845b818110156108145783516001600160a01b0316835292840192918401916001016107ef565b50909695505050505050565b60008060006060848603121561083557600080fd5b61083e8461077c565b925061084c6020850161077c565b915061085a6040850161077c565b90509250925092565b60208082526027908201527f4f6e6c792074686520617262697465722063616e2072656d6f76652074686520604082015266657363726f772160c81b606082015260800190565b634e487b7160e01b600052603260045260246000fd5b634e487b7160e01b600052601160045260246000fd5b6000600182016108e8576108e86108c0565b5060010190565b81810381811115610902576109026108c0565b92915050565b634e487b7160e01b600052603160045260246000fdfe60806040526040516103a73803806103a78339810160408190526100229161008d565b60008054336001600160a01b0319918216179091556001805482166001600160a01b039485161790556002805482169284169290921790915560038054909116929091169190911790556100d0565b80516001600160a01b038116811461008857600080fd5b919050565b6000806000606084860312156100a257600080fd5b6100ab84610071565b92506100b960208501610071565b91506100c760408501610071565b90509250925092565b6102c8806100df6000396000f3fe608060405234801561001057600080fd5b506004361061007d5760003560e01c806338af3eed1161005b57806338af3eed146100bd578063c7c4ff46146100e8578063de11c94a146100fb578063fe25e00a1461010e57600080fd5b8063092a5cce1461008257806312424e3f1461008c57806328f371aa14610094575b600080fd5b61008a610121565b005b61008a610162565b6003546100a890600160a01b900460ff1681565b60405190151581526020015b60405180910390f35b6002546100d0906001600160a01b031681565b6040516001600160a01b0390911681526020016100b4565b6003546100d0906001600160a01b031681565b6000546100d0906001600160a01b031681565b6001546100d0906001600160a01b031681565b6000546001600160a01b031633146101545760405162461bcd60e51b815260040161014b90610241565b60405180910390fd5b6003546001600160a01b0316ff5b6000546001600160a01b0316331461018c5760405162461bcd60e51b815260040161014b90610241565b6003805460ff60a01b1916600160a01b17905560025460405147916000916001600160a01b039091169083908381818185875af1925050503d80600081146101f0576040519150601f19603f3d011682016040523d82523d6000602084013e6101f5565b606091505b505090508061023d5760405162461bcd60e51b81526020600482015260146024820152732330b4b632b2103a379039b2b7321022ba3432b960611b604482015260640161014b565b5050565b60208082526031908201527f4f6e6c792074686520666163746f727920636f6e747261637420636e20706572604082015270666f726d207468697320616374696f6e2160781b60608201526080019056fea2646970667358221220507204883e8fb7974024242ed16e95102fa1d0a545d2cc810c338ce1ad15541564736f6c63430008110033a2646970667358221220bf2805f71b5a8dd301b5a236c61ea321d298ab7a23c183c69e11a63eeaef7e1464736f6c63430008110033",
  "linkReferences": {},
  "deployedLinkReferences": {}
}