{
  "_format": "hh-sol-artifact-1",
  "contractName": "Evt",
  "sourceName": "contracts/Event.sol",
  "abi": [
    {
      "inputs": [
        {
          "internalType": "string",
          "name": "_title",
          "type": "string"
        },
        {
          "internalType": "string",
          "name": "_description",
          "type": "string"
        },
        {
          "internalType": "string",
          "name": "_location",
          "type": "string"
        },
        {
          "internalType": "uint256",
          "name": "_fee",
          "type": "uint256"
        },
        {
          "internalType": "uint16",
          "name": "_maxParticipants",
          "type": "uint16"
        },
        {
          "internalType": "uint256",
          "name": "_dateTimeOfEvent",
          "type": "uint256"
        },
        {
          "internalType": "address",
          "name": "_creator",
          "type": "address"
        }
      ],
      "stateMutability": "nonpayable",
      "type": "constructor"
    },
    {
      "inputs": [
        {
          "internalType": "address",
          "name": "",
          "type": "address"
        }
      ],
      "name": "badRating",
      "outputs": [
        {
          "internalType": "bool",
          "name": "",
          "type": "bool"
        }
      ],
      "stateMutability": "view",
      "type": "function"
    },
    {
      "inputs": [],
      "name": "badRatingCount",
      "outputs": [
        {
          "internalType": "uint16",
          "name": "",
          "type": "uint16"
        }
      ],
      "stateMutability": "view",
      "type": "function"
    },
    {
      "inputs": [],
      "name": "cancelEvent",
      "outputs": [],
      "stateMutability": "nonpayable",
      "type": "function"
    },
    {
      "inputs": [
        {
          "internalType": "uint256",
          "name": "newDateTime",
          "type": "uint256"
        }
      ],
      "name": "changeDateTimeOfEvent",
      "outputs": [],
      "stateMutability": "nonpayable",
      "type": "function"
    },
    {
      "inputs": [],
      "name": "contractAddress",
      "outputs": [
        {
          "internalType": "address",
          "name": "",
          "type": "address"
        }
      ],
      "stateMutability": "view",
      "type": "function"
    },
    {
      "inputs": [],
      "name": "contractBalance",
      "outputs": [
        {
          "internalType": "uint256",
          "name": "",
          "type": "uint256"
        }
      ],
      "stateMutability": "view",
      "type": "function"
    },
    {
      "inputs": [],
      "name": "dateTimeOfEvent",
      "outputs": [
        {
          "internalType": "uint256",
          "name": "",
          "type": "uint256"
        }
      ],
      "stateMutability": "view",
      "type": "function"
    },
    {
      "inputs": [],
      "name": "description",
      "outputs": [
        {
          "internalType": "string",
          "name": "",
          "type": "string"
        }
      ],
      "stateMutability": "view",
      "type": "function"
    },
    {
      "inputs": [],
      "name": "eventCanceled",
      "outputs": [
        {
          "internalType": "bool",
          "name": "",
          "type": "bool"
        }
      ],
      "stateMutability": "view",
      "type": "function"
    },
    {
      "inputs": [],
      "name": "eventEnded",
      "outputs": [
        {
          "internalType": "bool",
          "name": "",
          "type": "bool"
        }
      ],
      "stateMutability": "view",
      "type": "function"
    },
    {
      "inputs": [],
      "name": "fee",
      "outputs": [
        {
          "internalType": "uint256",
          "name": "",
          "type": "uint256"
        }
      ],
      "stateMutability": "view",
      "type": "function"
    },
    {
      "inputs": [],
      "name": "getEventDetails",
      "outputs": [
        {
          "internalType": "string",
          "name": "",
          "type": "string"
        },
        {
          "internalType": "string",
          "name": "",
          "type": "string"
        },
        {
          "internalType": "string",
          "name": "",
          "type": "string"
        },
        {
          "internalType": "uint256",
          "name": "",
          "type": "uint256"
        },
        {
          "internalType": "uint16",
          "name": "",
          "type": "uint16"
        },
        {
          "internalType": "uint256",
          "name": "",
          "type": "uint256"
        },
        {
          "internalType": "address",
          "name": "",
          "type": "address"
        },
        {
          "internalType": "address",
          "name": "",
          "type": "address"
        },
        {
          "internalType": "bool",
          "name": "",
          "type": "bool"
        },
        {
          "internalType": "uint16",
          "name": "",
          "type": "uint16"
        },
        {
          "internalType": "uint16",
          "name": "",
          "type": "uint16"
        }
      ],
      "stateMutability": "view",
      "type": "function"
    },
    {
      "inputs": [],
      "name": "getListOfRegisteredParticipants",
      "outputs": [
        {
          "internalType": "address[]",
          "name": "",
          "type": "address[]"
        }
      ],
      "stateMutability": "view",
      "type": "function"
    },
    {
      "inputs": [
        {
          "internalType": "address",
          "name": "userAddr",
          "type": "address"
        }
      ],
      "name": "getUserRating",
      "outputs": [
        {
          "internalType": "bool",
          "name": "",
          "type": "bool"
        }
      ],
      "stateMutability": "view",
      "type": "function"
    },
    {
      "inputs": [],
      "name": "getUsersWithBadRatings",
      "outputs": [
        {
          "internalType": "address[]",
          "name": "",
          "type": "address[]"
        }
      ],
      "stateMutability": "view",
      "type": "function"
    },
    {
      "inputs": [],
      "name": "kill",
      "outputs": [],
      "stateMutability": "nonpayable",
      "type": "function"
    },
    {
      "inputs": [],
      "name": "location",
      "outputs": [
        {
          "internalType": "string",
          "name": "",
          "type": "string"
        }
      ],
      "stateMutability": "view",
      "type": "function"
    },
    {
      "inputs": [],
      "name": "manager",
      "outputs": [
        {
          "internalType": "address",
          "name": "",
          "type": "address"
        }
      ],
      "stateMutability": "view",
      "type": "function"
    },
    {
      "inputs": [],
      "name": "maxParticipants",
      "outputs": [
        {
          "internalType": "uint16",
          "name": "",
          "type": "uint16"
        }
      ],
      "stateMutability": "view",
      "type": "function"
    },
    {
      "inputs": [
        {
          "internalType": "string",
          "name": "_title",
          "type": "string"
        },
        {
          "internalType": "string",
          "name": "_description",
          "type": "string"
        },
        {
          "internalType": "string",
          "name": "_location",
          "type": "string"
        },
        {
          "internalType": "uint256",
          "name": "_fee",
          "type": "uint256"
        },
        {
          "internalType": "uint16",
          "name": "_maxParticipants",
          "type": "uint16"
        },
        {
          "internalType": "uint256",
          "name": "_dateTimeOfEvent",
          "type": "uint256"
        }
      ],
      "name": "modifyEvent",
      "outputs": [],
      "stateMutability": "nonpayable",
      "type": "function"
    },
    {
      "inputs": [
        {
          "internalType": "address",
          "name": "",
          "type": "address"
        }
      ],
      "name": "participants",
      "outputs": [
        {
          "internalType": "address",
          "name": "addr",
          "type": "address"
        },
        {
          "internalType": "string",
          "name": "name",
          "type": "string"
        },
        {
          "internalType": "string",
          "name": "email",
          "type": "string"
        },
        {
          "internalType": "string",
          "name": "telephone",
          "type": "string"
        },
        {
          "internalType": "bool",
          "name": "registered",
          "type": "bool"
        },
        {
          "internalType": "uint256",
          "name": "paidAmount",
          "type": "uint256"
        }
      ],
      "stateMutability": "view",
      "type": "function"
    },
    {
      "inputs": [],
      "name": "rateEventAsBad",
      "outputs": [],
      "stateMutability": "nonpayable",
      "type": "function"
    },
    {
      "inputs": [],
      "name": "recoverPaidFees",
      "outputs": [],
      "stateMutability": "nonpayable",
      "type": "function"
    },
    {
      "inputs": [
        {
          "internalType": "string",
          "name": "_name",
          "type": "string"
        },
        {
          "internalType": "string",
          "name": "_email",
          "type": "string"
        },
        {
          "internalType": "string",
          "name": "_tel",
          "type": "string"
        }
      ],
      "name": "registerForEvent",
      "outputs": [],
      "stateMutability": "payable",
      "type": "function"
    },
    {
      "inputs": [],
      "name": "registeredParticipantCount",
      "outputs": [
        {
          "internalType": "uint16",
          "name": "",
          "type": "uint16"
        }
      ],
      "stateMutability": "view",
      "type": "function"
    },
    {
      "inputs": [],
      "name": "retrieveEventFees",
      "outputs": [],
      "stateMutability": "nonpayable",
      "type": "function"
    },
    {
      "inputs": [],
      "name": "reverseBadRating",
      "outputs": [],
      "stateMutability": "nonpayable",
      "type": "function"
    },
    {
      "inputs": [],
      "name": "title",
      "outputs": [
        {
          "internalType": "string",
          "name": "",
          "type": "string"
        }
      ],
      "stateMutability": "view",
      "type": "function"
    },
    {
      "inputs": [],
      "name": "unregisterFromEvent",
      "outputs": [],
      "stateMutability": "nonpayable",
      "type": "function"
    }
  ],
  "bytecode": "0x6080604052600a805461ffff191690553480156200001c57600080fd5b5060405162002357380380620023578339810160408190526200003f91620001b3565b60008361ffff16116200005157600080fd5b60028054306001600160a01b031991821617909155600380549091166001600160a01b038316179055600462000088888262000315565b50600562000097878262000315565b506006620000a6868262000315565b50506007929092556008805461ffff191661ffff9290921691909117905560095550620003e1915050565b634e487b7160e01b600052604160045260246000fd5b600082601f830112620000f957600080fd5b81516001600160401b0380821115620001165762000116620000d1565b604051601f8301601f19908116603f01168101908282118183101715620001415762000141620000d1565b816040528381526020925086838588010111156200015e57600080fd5b600091505b8382101562000182578582018301518183018401529082019062000163565b600093810190920192909252949350505050565b80516001600160a01b0381168114620001ae57600080fd5b919050565b600080600080600080600060e0888a031215620001cf57600080fd5b87516001600160401b0380821115620001e757600080fd5b620001f58b838c01620000e7565b985060208a01519150808211156200020c57600080fd5b6200021a8b838c01620000e7565b975060408a01519150808211156200023157600080fd5b50620002408a828b01620000e7565b95505060608801519350608088015161ffff811681146200026057600080fd5b60a089015190935091506200027860c0890162000196565b905092959891949750929550565b600181811c908216806200029b57607f821691505b602082108103620002bc57634e487b7160e01b600052602260045260246000fd5b50919050565b601f8211156200031057600081815260208120601f850160051c81016020861015620002eb5750805b601f850160051c820191505b818110156200030c57828155600101620002f7565b5050505b505050565b81516001600160401b03811115620003315762000331620000d1565b620003498162000342845462000286565b84620002c2565b602080601f831160018114620003815760008415620003685750858301515b600019600386901b1c1916600185901b1785556200030c565b600085815260208120601f198616915b82811015620003b25788860151825594840194600190910190840162000391565b5085821015620003d15787850151600019600388901b60f8161c191681555b5050505050600190811b01905550565b611f6680620003f16000396000f3fe6080604052600436106101c25760003560e01c80637f4c927a116100f7578063d211663011610095578063f475486c11610064578063f475486c146104fa578063f57e63e21461050f578063f6b4dfb41461052e578063fb6c95371461054e57600080fd5b8063d211663014610482578063ddca3f43146104a2578063e2bb3ccf146104b8578063ec82402e146104e457600080fd5b80638b7afe2e116100d15780638b7afe2e1461040b578063a87246781461042e578063a934ead71461044e578063c4625ba31461046157600080fd5b80637f4c927a146103b157806383e34ab6146103e157806389022f4e146103f657600080fd5b806341c0e1b5116101645780634a79d50c1161013e5780634a79d50c14610350578063516f279e1461037257806360e8e7eb146103875780637284e4161461039c57600080fd5b806341c0e1b5146102ca578063460168c3146102df578063481c6a751461031857600080fd5b80630c03187d116101a05780630c03187d1461023b578063148b597c1461025057806324924bf71461027a5780633f2bfafd146102a857600080fd5b806302dfabcd146101c757806309c2160c146101de57806309e69ede14610209575b600080fd5b3480156101d357600080fd5b506101dc610563565b005b3480156101ea57600080fd5b506101f361065a565b6040516102009190611941565b60405180910390f35b34801561021557600080fd5b5061022961022436600461198e565b6107ef565b60405161020096959493929190611a04565b34801561024757600080fd5b506101dc6109ca565b34801561025c57600080fd5b50600a5461026a9060ff1681565b6040519015158152602001610200565b34801561028657600080fd5b506008546102959061ffff1681565b60405161ffff9091168152602001610200565b3480156102b457600080fd5b50600a5461029590600160201b900461ffff1681565b3480156102d657600080fd5b506101dc610aaf565b3480156102eb57600080fd5b5061026a6102fa36600461198e565b6001600160a01b031660009081526001602052604090205460ff1690565b34801561032457600080fd5b50600354610338906001600160a01b031681565b6040516001600160a01b039091168152602001610200565b34801561035c57600080fd5b50610365610ad4565b6040516102009190611a64565b34801561037e57600080fd5b50610365610b62565b34801561039357600080fd5b506101dc610b6f565b3480156103a857600080fd5b50610365610c40565b3480156103bd57600080fd5b5061026a6103cc36600461198e565b60016020526000908152604090205460ff1681565b3480156103ed57600080fd5b506101dc610c4d565b34801561040257600080fd5b506101dc610f34565b34801561041757600080fd5b50610420610ffb565b604051908152602001610200565b34801561043a57600080fd5b506101dc610449366004611b1a565b611026565b6101dc61045c366004611bd0565b6110b1565b34801561046d57600080fd5b50600a546102959062010000900461ffff1681565b34801561048e57600080fd5b506101dc61049d366004611c58565b6112c8565b3480156104ae57600080fd5b5061042060075481565b3480156104c457600080fd5b506104cd6112e4565b6040516102009b9a99989796959493929190611c71565b3480156104f057600080fd5b5061042060095481565b34801561050657600080fd5b506101f3611514565b34801561051b57600080fd5b50600a5461026a90610100900460ff1681565b34801561053a57600080fd5b50600254610338906001600160a01b031681565b34801561055a57600080fd5b506101dc6116e5565b6003546001600160a01b0316330361057a57600080fd5b336000908152602081905260409020610596610e106006611d26565b6009546105a39190611d3d565b42106105ae57600080fd5b80546001600160a01b031633146105c457600080fd5b600481015460ff1615156001146105da57600080fd5b60048101805460ff19169055600a805462010000900461ffff1690600261060083611d50565b91906101000a81548161ffff021916908361ffff16021790555050336001600160a01b03166108fc6007549081150290604051600060405180830381858888f19350505050158015610656573d6000803e3d6000fd5b5050565b600a5460609060009062010000900461ffff1667ffffffffffffffff81111561068557610685611a77565b6040519080825280602002602001820160405280156106ae578160200160208202803683370190505b50905060008060005b600b5461ffff821610156107e657600b8161ffff16815481106106dc576106dc611d6e565b60009182526020808320909101546001600160a01b03168083529082905260409091206004015490925060ff16151560011480156107295750600a5461ffff620100009091048116908416105b156107d4576000805b8461ffff168161ffff16101561078f57836001600160a01b0316868661ffff168151811061076257610762611d6e565b60200260200101516001600160a01b03160361077d57600191505b8061078781611d84565b915050610732565b50806107d25782858561ffff16815181106107ac576107ac611d6e565b6001600160a01b0390921660209283029190910190910152836107ce81611d84565b9450505b505b806107de81611d84565b9150506106b7565b50919392505050565b600060208190529081526040902080546001820180546001600160a01b03909216929161081b90611da5565b80601f016020809104026020016040519081016040528092919081815260200182805461084790611da5565b80156108945780601f1061086957610100808354040283529160200191610894565b820191906000526020600020905b81548152906001019060200180831161087757829003601f168201915b5050505050908060020180546108a990611da5565b80601f01602080910402602001604051908101604052809291908181526020018280546108d590611da5565b80156109225780601f106108f757610100808354040283529160200191610922565b820191906000526020600020905b81548152906001019060200180831161090557829003601f168201915b50505050509080600301805461093790611da5565b80601f016020809104026020016040519081016040528092919081815260200182805461096390611da5565b80156109b05780601f10610985576101008083540402835291602001916109b0565b820191906000526020600020905b81548152906001019060200180831161099357829003601f168201915b505050506004830154600590930154919260ff1691905086565b6003546001600160a01b031633036109e157600080fd5b6109ee610e106002611d26565b6009546109fb9190611ddf565b4211610a0657600080fd5b3360009081526020819052604090206004015460ff161515600114610a2a57600080fd5b3360009081526001602052604090205460ff1615610a4757600080fd5b610a4f61191d565b4210610a5a57600080fd5b336000908152600160208190526040909120805460ff19169091179055600a8054600160201b900461ffff16906004610a9283611d84565b91906101000a81548161ffff021916908361ffff16021790555050565b6003546001600160a01b03163314610ac657600080fd5b6003546001600160a01b0316ff5b60048054610ae190611da5565b80601f0160208091040260200160405190810160405280929190818152602001828054610b0d90611da5565b8015610b5a5780601f10610b2f57610100808354040283529160200191610b5a565b820191906000526020600020905b815481529060010190602001808311610b3d57829003601f168201915b505050505081565b60068054610ae190611da5565b6003546001600160a01b03163303610b8657600080fd5b600a54610b9f9060029062010000900461ffff16611df2565b600a5461ffff918216600160201b90910490911611610bbd57600080fd5b3360009081526020819052604090206004015460ff161515600114610be157600080fd5b3360009081526001602081905260409091205460ff16151514610c0357600080fd5b3360008181526020819052604080822060050154905181156108fc0292818181858888f19350505050158015610c3d573d6000803e3d6000fd5b50565b60058054610ae190611da5565b6003546001600160a01b03163314610c6457600080fd5b610c6c61191d565b4211610c7757600080fd5b600a54610c909060029062010000900461ffff16611df2565b600a5461ffff918216600160201b9091049091161115610ef45760005b600b5461ffff82161015610ef257600080600b8361ffff1681548110610cd557610cd5611d6e565b60009182526020808320909101546001600160a01b0316835282019290925260400190206004015460ff1615156001148015610d5257506000806000600b8461ffff1681548110610d2857610d28611d6e565b60009182526020808320909101546001600160a01b03168352820192909252604001902060050154115b8015610da2575060016000600b8361ffff1681548110610d7457610d74611d6e565b60009182526020808320909101546001600160a01b0316835282019290925260400190205460ff1615156001145b15610ee0576000806000600b8461ffff1681548110610dc357610dc3611d6e565b6000918252602080832091909101546001600160a01b031683528201929092526040019020600401805460ff1916911515919091179055600b805461ffff8316908110610e1257610e12611d6e565b6000918252602082200154600b80546001600160a01b03909216926108fc929091829161ffff8716908110610e4957610e49611d6e565b60009182526020808320909101546001600160a01b03168352820192909252604090810182206005015490518115909302929091818181858888f19350505050158015610e9a573d6000803e3d6000fd5b506000806000600b8461ffff1681548110610eb757610eb7611d6e565b60009182526020808320909101546001600160a01b031683528201929092526040019020600501555b80610eea81611d84565b915050610cad565b505b6003546002546040516001600160a01b0392831692919091163180156108fc02916000818181858888f19350505050158015610c3d573d6000803e3d6000fd5b6003546001600160a01b03163303610f4b57600080fd5b610f58610e106002611d26565b600954610f659190611ddf565b4211610f7057600080fd5b3360009081526020819052604090206004015460ff161515600114610f9457600080fd5b3360009081526001602081905260409091205460ff16151514610fb657600080fd5b610fbe61191d565b4210610fc957600080fd5b336000908152600160205260409020805460ff19169055600a8054600160201b900461ffff16906004610a9283611d50565b6003546000906001600160a01b0316331461101557600080fd5b506002546001600160a01b03163190565b6003546001600160a01b0316331461103d57600080fd5b60008261ffff161161104e57600080fd5b61105b6201518042611ddf565b811161106657600080fd5b60046110728782611e70565b50600561107f8682611e70565b50600661108c8582611e70565b506007929092556008805461ffff191661ffff92909216919091179055600955505050565b6003546001600160a01b031633036110c857600080fd5b6110d5610e106001611d26565b6009546110e29190611d3d565b42106110ed57600080fd5b6007543410156110fc57600080fd5b600854600a5461ffff91821662010000909104909116111561111d57600080fd5b3360009081526020819052604090206004015460ff161561113d57600080fd5b600a805462010000900461ffff1690600261115783611d84565b82546101009290920a61ffff818102199093169190921691909102179055506040805160c0810182523380825260208083018781528385018790526060840186905260016080850181905260075460a086015260009384529183905293909120825181546001600160a01b0319166001600160a01b0390911617815592519192839290918201906111e89082611e70565b50604082015160028201906111fd9082611e70565b50606082015160038201906112129082611e70565b50608082015160048201805491151560ff1990921691909117905560a090910151600590910155600b80546001810182556000919091527f0175b7a638427703f0dbe7bb9bbf987a2551717b34e79f33b5b1008d1fa01db90180546001600160a01b031916331790556007543411156112c25760075433906108fc906112989034611d3d565b6040518115909202916000818181858888f193505050501580156112c0573d6000803e3d6000fd5b505b50505050565b6003546001600160a01b031633146112df57600080fd5b600955565b600754600854600954600354600254600a54600480546060978897889760009788978897889788978897889788979396600596600696939561ffff9384169590946001600160a01b0393841694929093169260ff811692620100008204811692600160201b90920416908b9061135990611da5565b80601f016020809104026020016040519081016040528092919081815260200182805461138590611da5565b80156113d25780601f106113a7576101008083540402835291602001916113d2565b820191906000526020600020905b8154815290600101906020018083116113b557829003601f168201915b50505050509a508980546113e590611da5565b80601f016020809104026020016040519081016040528092919081815260200182805461141190611da5565b801561145e5780601f106114335761010080835404028352916020019161145e565b820191906000526020600020905b81548152906001019060200180831161144157829003601f168201915b5050505050995088805461147190611da5565b80601f016020809104026020016040519081016040528092919081815260200182805461149d90611da5565b80156114ea5780601f106114bf576101008083540402835291602001916114ea565b820191906000526020600020905b8154815290600101906020018083116114cd57829003601f168201915b505050505098509a509a509a509a509a509a509a509a509a509a509a50909192939495969798999a565b600a54606090600090600160201b900461ffff1667ffffffffffffffff81111561154057611540611a77565b604051908082528060200260200182016040528015611569578160200160208202803683370190505b5090506000805b600b5461ffff821610156116dd5760016000600b8361ffff168154811061159957611599611d6e565b60009182526020808320909101546001600160a01b0316835282019290925260400190205460ff1615156001036116cb576000805b8361ffff168161ffff16101561165257600b8361ffff16815481106115f5576115f5611d6e565b60009182526020909120015485516001600160a01b0390911690869061ffff871690811061162557611625611d6e565b60200260200101516001600160a01b03160361164057600191505b8061164a81611d84565b9150506115ce565b50806116c957600b8261ffff168154811061166f5761166f611d6e565b9060005260206000200160009054906101000a90046001600160a01b0316848461ffff16815181106116a3576116a3611d6e565b6001600160a01b0390921660209283029190910190910152826116c581611d84565b9350505b505b806116d581611d84565b915050611570565b509092915050565b6003546001600160a01b031633146116fc57600080fd5b6201518060095461170d9190611d3d565b421061171857600080fd5b600a805460ff1916600117905560005b600b5461ffff82161015610c3d57600080600b8361ffff168154811061175057611750611d6e565b60009182526020808320909101546001600160a01b0316835282019290925260400190206004015460ff16151560011480156117cd57506000806000600b8461ffff16815481106117a3576117a3611d6e565b60009182526020808320909101546001600160a01b03168352820192909252604001902060050154115b1561190b576000806000600b8461ffff16815481106117ee576117ee611d6e565b6000918252602080832091909101546001600160a01b031683528201929092526040019020600401805460ff1916911515919091179055600b805461ffff831690811061183d5761183d611d6e565b6000918252602082200154600b80546001600160a01b03909216926108fc929091829161ffff871690811061187457611874611d6e565b60009182526020808320909101546001600160a01b03168352820192909252604090810182206005015490518115909302929091818181858888f193505050501580156118c5573d6000803e3d6000fd5b506000806000600b8461ffff16815481106118e2576118e2611d6e565b60009182526020808320909101546001600160a01b031683528201929092526040019020600501555b8061191581611d84565b915050611728565b60008061192e620151806007611d26565b60095461193b9190611ddf565b92915050565b6020808252825182820181905260009190848201906040850190845b818110156119825783516001600160a01b03168352928401929184019160010161195d565b50909695505050505050565b6000602082840312156119a057600080fd5b81356001600160a01b03811681146119b757600080fd5b9392505050565b6000815180845260005b818110156119e4576020818501810151868301820152016119c8565b506000602082860101526020601f19601f83011685010191505092915050565b6001600160a01b038716815260c060208201819052600090611a28908301886119be565b8281036040840152611a3a81886119be565b90508281036060840152611a4e81876119be565b9415156080840152505060a00152949350505050565b6020815260006119b760208301846119be565b634e487b7160e01b600052604160045260246000fd5b600082601f830112611a9e57600080fd5b813567ffffffffffffffff80821115611ab957611ab9611a77565b604051601f8301601f19908116603f01168101908282118183101715611ae157611ae1611a77565b81604052838152866020858801011115611afa57600080fd5b836020870160208301376000602085830101528094505050505092915050565b60008060008060008060c08789031215611b3357600080fd5b863567ffffffffffffffff80821115611b4b57600080fd5b611b578a838b01611a8d565b97506020890135915080821115611b6d57600080fd5b611b798a838b01611a8d565b96506040890135915080821115611b8f57600080fd5b50611b9c89828a01611a8d565b94505060608701359250608087013561ffff81168114611bbb57600080fd5b8092505060a087013590509295509295509295565b600080600060608486031215611be557600080fd5b833567ffffffffffffffff80821115611bfd57600080fd5b611c0987838801611a8d565b94506020860135915080821115611c1f57600080fd5b611c2b87838801611a8d565b93506040860135915080821115611c4157600080fd5b50611c4e86828701611a8d565b9150509250925092565b600060208284031215611c6a57600080fd5b5035919050565b6000610160808352611c858184018f6119be565b90508281036020840152611c99818e6119be565b90508281036040840152611cad818d6119be565b606084018c905261ffff8b8116608086015260a085018b90526001600160a01b038a811660c0870152891660e086015287151561010086015286811661012086015285166101408501529150611d009050565b9c9b505050505050505050505050565b634e487b7160e01b600052601160045260246000fd5b808202811582820484141761193b5761193b611d10565b8181038181111561193b5761193b611d10565b600061ffff821680611d6457611d64611d10565b6000190192915050565b634e487b7160e01b600052603260045260246000fd5b600061ffff808316818103611d9b57611d9b611d10565b6001019392505050565b600181811c90821680611db957607f821691505b602082108103611dd957634e487b7160e01b600052602260045260246000fd5b50919050565b8082018082111561193b5761193b611d10565b600061ffff80841680611e1557634e487b7160e01b600052601260045260246000fd5b92169190910492915050565b601f821115611e6b57600081815260208120601f850160051c81016020861015611e485750805b601f850160051c820191505b81811015611e6757828155600101611e54565b5050505b505050565b815167ffffffffffffffff811115611e8a57611e8a611a77565b611e9e81611e988454611da5565b84611e21565b602080601f831160018114611ed35760008415611ebb5750858301515b600019600386901b1c1916600185901b178555611e67565b600085815260208120601f198616915b82811015611f0257888601518255948401946001909101908401611ee3565b5085821015611f205787850151600019600388901b60f8161c191681555b5050505050600190811b0190555056fea26469706673582212207f477edcab1ac7564318176c1ccd14534ea3c16aaf0860e1957db27094c16d6664736f6c63430008110033",
  "linkReferences": {},
  "deployedLinkReferences": {}
}